{
  "address": "0xa3316173E21174ff2EA1013E89D964FefE1f2B9E",
  "abi": [
    {
      "inputs": [],
      "name": "GameOver",
      "type": "error"
    },
    {
      "inputs": [],
      "name": "InvalidSelection",
      "type": "error"
    },
    {
      "inputs": [],
      "name": "NotYourTurn",
      "type": "error"
    },
    {
      "anonymous": false,
      "inputs": [
        {
          "indexed": false,
          "internalType": "uint256",
          "name": "gameId",
          "type": "uint256"
        },
        {
          "indexed": false,
          "internalType": "address",
          "name": "teamOne",
          "type": "address"
        },
        {
          "indexed": false,
          "internalType": "address",
          "name": "teamTwo",
          "type": "address"
        }
      ],
      "name": "GameCreated",
      "type": "event"
    },
    {
      "anonymous": false,
      "inputs": [
        {
          "indexed": false,
          "internalType": "uint256",
          "name": "gameId",
          "type": "uint256"
        },
        {
          "indexed": false,
          "internalType": "address",
          "name": "winner",
          "type": "address"
        }
      ],
      "name": "GameFinished",
      "type": "event"
    },
    {
      "anonymous": false,
      "inputs": [
        {
          "indexed": true,
          "internalType": "uint256",
          "name": "gameId",
          "type": "uint256"
        },
        {
          "indexed": false,
          "internalType": "address",
          "name": "team",
          "type": "address"
        },
        {
          "indexed": false,
          "internalType": "uint8",
          "name": "column",
          "type": "uint8"
        }
      ],
      "name": "TurnTaken",
      "type": "event"
    },
    {
      "inputs": [
        {
          "internalType": "address",
          "name": "opponent",
          "type": "address"
        }
      ],
      "name": "challenge",
      "outputs": [],
      "stateMutability": "nonpayable",
      "type": "function"
    },
    {
      "inputs": [],
      "name": "gameId",
      "outputs": [
        {
          "internalType": "uint256",
          "name": "",
          "type": "uint256"
        }
      ],
      "stateMutability": "view",
      "type": "function"
    },
    {
      "inputs": [
        {
          "internalType": "uint256",
          "name": "",
          "type": "uint256"
        }
      ],
      "name": "getGame",
      "outputs": [
        {
          "internalType": "address",
          "name": "teamOne",
          "type": "address"
        },
        {
          "internalType": "address",
          "name": "teamTwo",
          "type": "address"
        },
        {
          "internalType": "address",
          "name": "winner",
          "type": "address"
        },
        {
          "internalType": "uint8",
          "name": "turn",
          "type": "uint8"
        }
      ],
      "stateMutability": "view",
      "type": "function"
    },
    {
      "inputs": [
        {
          "internalType": "uint8",
          "name": "_gameId",
          "type": "uint8"
        }
      ],
      "name": "getGameBoard",
      "outputs": [
        {
          "internalType": "uint8[6][6]",
          "name": "",
          "type": "uint8[6][6]"
        }
      ],
      "stateMutability": "view",
      "type": "function"
    },
    {
      "inputs": [
        {
          "internalType": "uint8",
          "name": "_gameId",
          "type": "uint8"
        },
        {
          "internalType": "uint8",
          "name": "column",
          "type": "uint8"
        }
      ],
      "name": "makeMove",
      "outputs": [],
      "stateMutability": "nonpayable",
      "type": "function"
    }
  ],
  "transactionHash": "0xa6a4107b0befb12aea7401e5bf1c5bf842ef33ad2531e231aa514af6850cf3de",
  "args": [],
  "numDeployments": 2,
  "solcInputHash": "506e27494acf4a0beaa200ecd54540cf",
  "bytecode": "0x608060405234801561001057600080fd5b50610e0b806100206000396000f3fe608060405234801561001057600080fd5b50600436106100575760003560e01c80635e24b0f11461005c57806372fb9703146100715780639b33b42914610084578063a2f77bcc146100ad578063d7c81b551461012b575b600080fd5b61006f61006a366004610c21565b610142565b005b61006f61007f366004610c54565b610424565b610097610092366004610c84565b61055a565b6040516100a49190610c9f565b60405180910390f35b6100f86100bb366004610d03565b60016020819052600091825260409091208054918101546002909101546001600160a01b039283169291821691811690600160a01b900460ff1684565b604080516001600160a01b0395861681529385166020850152919093169082015260ff90911660608201526080016100a4565b61013460005481565b6040519081526020016100a4565b60ff82166000818152600160205260409020600201546001600160a01b03161561017f5760405163df469ccb60e01b815260040160405180910390fd5b8160058160ff1611156101a557604051631efccef760e11b815260040160405180910390fd5b60ff84166000908152600160208190526040822060028101549092918291600160a01b900416156101d75760016101da565b60025b6002840154909150600160a01b9004600116156102015782546001600160a01b0316610210565b60018301546001600160a01b03165b6001600160a01b0316336001600160a01b03161461024157604051631cc191eb60e31b815260040160405180910390fd5b60005b60078160ff1610156102ec5760058160ff16111561027557604051631efccef760e11b815260040160405180910390fd5b6000846003018260ff166006811061028f5761028f610d1c565b018860ff16600681106102a4576102a4610d1c565b602081049091015460ff601f9092166101000a900416905060008190036102d957816102cf81610d48565b92509350506102ec565b50806102e481610d48565b915050610244565b5080836003018360ff166006811061030657610306610d1c565b018760ff166006811061031b5761031b610d1c565b60208104909101805460ff938416601f9093166101000a9283029284021916919091179055600284018054600160a01b900490911690601461035c83610d48565b82546101009290920a60ff818102199093169183160217909155604080513381528983166020820152918a1692507fa6f41f711ea470b4b237d1b3e43b201e53517677308ae067a273fb1948ddbf0c910160405180910390a26103c1878784846105f9565b1561041b576002830180546001600160a01b031916339081179091556040805160ff8a16815260208101929092527fb7f35e624e036288272fbf3342c09219261ff29fdddd826989b289134e9ae535910160405180910390a15b50505050505050565b806001600160a01b038116330361043a57600080fd5b610442610abf565b6040805160a0810182523381526001600160a01b038581166020808401918252600084860181815260608601828152608087018981528354845260019485905297909220865181549087166001600160a01b03199182161782559451938101805494871694909516939093179093559151600282018054935160ff16600160a01b026001600160a81b03199094169190941617919091179091559151909182916104f29060038301906006610aec565b5050600054604080519182523360208301526001600160a01b038716908201527f8946648bc1dbc670d3f07e2c4de91731227b6d4ccc53b8ab1e951e84d960577e915060600160405180910390a160008054908061054f83610d67565b919050555050505050565b610562610abf565b60ff8216600090815260016020526040808220815160c081019092529091600390910190600690835b828210156105ee576040805160c08101918290529085840190600690826000855b825461010083900a900460ff168152602060019283018181049485019490930390920291018084116105ac57905050505050508152602001906001019061058b565b505050509050919050565b60008061060886868686610699565b90508060040361061c576001915050610691565b600061062a87878787610765565b90508060040361063f57600192505050610691565b600061064d8888888861081c565b9050806004036106635760019350505050610691565b600061067189898989610922565b905080600403610688576001945050505050610691565b60009450505050505b949350505050565b60006001816106a88683610d80565b90505b6106b6866006610d9f565b60ff168160ff1610156106fd576106cf87868387610a51565b156106e657816106de81610d67565b9250506106eb565b6106fd565b806106f581610d48565b9150506106ab565b5060ff85161561075c576000610714600187610d9f565b90505b61072387868387610a51565b1561073a578161073281610d67565b92505061073f565b61075a565b60ff81161561075a578061075281610db8565b915050610717565b505b95945050505050565b60006001816107748583610d80565b90505b610782856006610d9f565b60ff168160ff1610156107c95761079b87828887610a51565b156107b257816107aa81610d67565b9250506107b7565b6107c9565b806107c181610d48565b915050610777565b5060ff84161561075c5760006107e0600186610d9f565b90505b6107ef87828887610a51565b1561073a57816107fe81610d67565b92505060ff81161561075a578061081481610db8565b9150506107e3565b600060018161082b8583610d80565b90505b610839856006610d9f565b60ff168160ff1610156108805761085287828387610a51565b15610869578161086181610d67565b92505061086e565b610880565b8061087881610d48565b91505061082e565b5060ff841615801590610895575060ff851615155b1561075c5760006108a7600186610d9f565b905060006108b6600188610d9f565b90505b6108c588838388610a51565b156108dc57826108d481610d67565b9350506108e1565b610916565b60ff821615806108f2575060ff8116155b610916578161090081610db8565b925050808061090e90610db8565b9150506108b9565b50509050949350505050565b6000600160ff8416156109bd57600061093c600186610d9f565b9050600061094b876001610d80565b90505b60068160ff1610156109ba5761096688838388610a51565b1561097d578261097581610d67565b935050610982565b6109ba565b60ff82161580610996575060068160ff1610155b6109ba57816109a481610db8565b92505080806109b290610d48565b91505061094e565b50505b60ff85161561075c5760006109d3856001610d80565b905060006109e2600188610d9f565b90505b60068260ff161080156109f6575060015b1561091657610a0788838388610a51565b156108dc5782610a1681610d67565b93505060068260ff16101580610a2d575060ff8116155b6109165781610a3b81610d48565b9250508080610a4990610db8565b9150506109e5565b600080600160008760ff16815260200190815260200160002060030190508260ff16818660ff1660068110610a8857610a88610d1c565b018560ff1660068110610a9d57610a9d610d1c565b602081049091015460ff601f9092166101000a90041614915050949350505050565b6040518060c001604052806006905b610ad6610b36565b815260200190600190039081610ace5790505090565b8260068101928215610b26579160200282015b82811115610b26578251610b169083906006610b54565b5091602001919060010190610aff565b50610b32929150610be3565b5090565b6040518060c001604052806006906020820280368337509192915050565b600183019183908215610bd75791602002820160005b83821115610ba857835183826101000a81548160ff021916908360ff1602179055509260200192600101602081600001049283019260010302610b6a565b8015610bd55782816101000a81549060ff0219169055600101602081600001049283019260010302610ba8565b505b50610b32929150610bf7565b80821115610b325760008155600101610be3565b80821115610b325760008155600101610be3565b803560ff81168114610c1c57600080fd5b919050565b60008060408385031215610c3457600080fd5b610c3d83610c0b565b9150610c4b60208401610c0b565b90509250929050565b600060208284031215610c6657600080fd5b81356001600160a01b0381168114610c7d57600080fd5b9392505050565b600060208284031215610c9657600080fd5b610c7d82610c0b565b610480810181836000805b6006808210610cb95750610cf9565b835185845b83811015610cdf57825160ff16825260209283019290910190600101610cbe565b50505060c094909401935060209290920191600101610caa565b5050505092915050565b600060208284031215610d1557600080fd5b5035919050565b634e487b7160e01b600052603260045260246000fd5b634e487b7160e01b600052601160045260246000fd5b600060ff821660ff8103610d5e57610d5e610d32565b60010192915050565b600060018201610d7957610d79610d32565b5060010190565b60ff8181168382160190811115610d9957610d99610d32565b92915050565b60ff8281168282160390811115610d9957610d99610d32565b600060ff821680610dcb57610dcb610d32565b600019019291505056fea2646970667358221220db0d5b9ca8f794f5b194bfb1e9e66423054ff5ba96890ff94cc17bceddfefbda64736f6c63430008110033",
  "devdoc": {
    "kind": "dev",
    "methods": {
      "challenge(address)": {
        "details": "opponent will go firstgame id is increated each time a new game is createdseason is over when timer (soon to be added) is past",
        "params": {
          "opponent": "challened"
        }
      },
      "makeMove(uint8,uint8)": {
        "params": {
          "_gameId": "id of game",
          "column": "selected column for move"
        }
      }
    },
    "stateVariables": {
      "gameId": {
        "details": "Initialised at 1 because it makes the first transaction slightly cheaper."
      },
      "getGame": {
        "details": "This automatically generates a getter for us, which will return `Game.player1`, `Game.player2`, `Game.moves`, and `Game.finished` (the arrays are skipped)"
      }
    },
    "version": 1
  },
  "userdoc": {
    "errors": {
      "GameOver()": [
        {
          "notice": "revert if game has been completed"
        }
      ],
      "InvalidSelection()": [
        {
          "notice": "revert if column choice is invalid"
        }
      ],
      "NotYourTurn()": [
        {
          "notice": "revert if caller isn't current team"
        }
      ]
    },
    "events": {
      "GameCreated(uint256,address,address)": {
        "notice": "emiited when game is created"
      },
      "GameFinished(uint256,address)": {
        "notice": "emitted when game is complete"
      },
      "TurnTaken(uint256,address,uint8)": {
        "notice": "emitted after turn is successfully taken"
      }
    },
    "kind": "user",
    "methods": {
      "challenge(address)": {
        "notice": "challenge an address to a game of connect four"
      },
      "gameId()": {
        "notice": "Used as a counter for the next game index."
      },
      "getGame(uint256)": {
        "notice": "An indexed list of games"
      },
      "makeMove(uint8,uint8)": {
        "notice": "current team plays a turn"
      }
    },
    "version": 1
  },
  "storageLayout": {
    "storage": [
      {
        "astId": 53,
        "contract": "contracts/ConnectFour/ConnectFour.sol:ConnectFour",
        "label": "gameId",
        "offset": 0,
        "slot": "0",
        "type": "t_uint256"
      },
      {
        "astId": 59,
        "contract": "contracts/ConnectFour/ConnectFour.sol:ConnectFour",
        "label": "getGame",
        "offset": 0,
        "slot": "1",
        "type": "t_mapping(t_uint256,t_struct(Game)50_storage)"
      }
    ],
    "types": {
      "t_address": {
        "encoding": "inplace",
        "label": "address",
        "numberOfBytes": "20"
      },
      "t_array(t_array(t_uint8)6_storage)6_storage": {
        "base": "t_array(t_uint8)6_storage",
        "encoding": "inplace",
        "label": "uint8[6][6]",
        "numberOfBytes": "192"
      },
      "t_array(t_uint8)6_storage": {
        "base": "t_uint8",
        "encoding": "inplace",
        "label": "uint8[6]",
        "numberOfBytes": "32"
      },
      "t_mapping(t_uint256,t_struct(Game)50_storage)": {
        "encoding": "mapping",
        "key": "t_uint256",
        "label": "mapping(uint256 => struct ConnectFour.Game)",
        "numberOfBytes": "32",
        "value": "t_struct(Game)50_storage"
      },
      "t_struct(Game)50_storage": {
        "encoding": "inplace",
        "label": "struct ConnectFour.Game",
        "members": [
          {
            "astId": 37,
            "contract": "contracts/ConnectFour/ConnectFour.sol:ConnectFour",
            "label": "teamOne",
            "offset": 0,
            "slot": "0",
            "type": "t_address"
          },
          {
            "astId": 39,
            "contract": "contracts/ConnectFour/ConnectFour.sol:ConnectFour",
            "label": "teamTwo",
            "offset": 0,
            "slot": "1",
            "type": "t_address"
          },
          {
            "astId": 41,
            "contract": "contracts/ConnectFour/ConnectFour.sol:ConnectFour",
            "label": "winner",
            "offset": 0,
            "slot": "2",
            "type": "t_address"
          },
          {
            "astId": 43,
            "contract": "contracts/ConnectFour/ConnectFour.sol:ConnectFour",
            "label": "turn",
            "offset": 20,
            "slot": "2",
            "type": "t_uint8"
          },
          {
            "astId": 49,
            "contract": "contracts/ConnectFour/ConnectFour.sol:ConnectFour",
            "label": "board",
            "offset": 0,
            "slot": "3",
            "type": "t_array(t_array(t_uint8)6_storage)6_storage"
          }
        ],
        "numberOfBytes": "288"
      },
      "t_uint256": {
        "encoding": "inplace",
        "label": "uint256",
        "numberOfBytes": "32"
      },
      "t_uint8": {
        "encoding": "inplace",
        "label": "uint8",
        "numberOfBytes": "1"
      }
    }
  }
}